{
  "contractName": "Block4Health",
  "abi": [
    {
      "inputs": [
        {
          "internalType": "address",
          "name": "",
          "type": "address"
        }
      ],
      "name": "EHR_Store",
      "outputs": [
        {
          "internalType": "string",
          "name": "DoctorReport",
          "type": "string"
        }
      ],
      "stateMutability": "view",
      "type": "function",
      "constant": true
    },
    {
      "inputs": [
        {
          "internalType": "address",
          "name": "",
          "type": "address"
        },
        {
          "internalType": "uint256",
          "name": "",
          "type": "uint256"
        }
      ],
      "name": "EHR_Store_Access",
      "outputs": [
        {
          "internalType": "address",
          "name": "",
          "type": "address"
        }
      ],
      "stateMutability": "view",
      "type": "function",
      "constant": true
    },
    {
      "inputs": [
        {
          "internalType": "uint256",
          "name": "",
          "type": "uint256"
        },
        {
          "internalType": "uint256",
          "name": "",
          "type": "uint256"
        }
      ],
      "name": "Hospital_Doctor",
      "outputs": [
        {
          "internalType": "string",
          "name": "Doctor_Hash",
          "type": "string"
        },
        {
          "internalType": "uint256",
          "name": "Hospital_id",
          "type": "uint256"
        }
      ],
      "stateMutability": "view",
      "type": "function",
      "constant": true
    },
    {
      "inputs": [
        {
          "internalType": "uint256",
          "name": "",
          "type": "uint256"
        }
      ],
      "name": "Hospital_map",
      "outputs": [
        {
          "internalType": "address",
          "name": "Hospital_id",
          "type": "address"
        },
        {
          "internalType": "string",
          "name": "Hospital_hash_record",
          "type": "string"
        }
      ],
      "stateMutability": "view",
      "type": "function",
      "constant": true
    },
    {
      "inputs": [
        {
          "internalType": "address",
          "name": "",
          "type": "address"
        }
      ],
      "name": "Patient_map",
      "outputs": [
        {
          "internalType": "address",
          "name": "PatientID",
          "type": "address"
        },
        {
          "internalType": "string",
          "name": "Hashrecord",
          "type": "string"
        }
      ],
      "stateMutability": "view",
      "type": "function",
      "constant": true
    },
    {
      "inputs": [
        {
          "internalType": "uint256",
          "name": "id",
          "type": "uint256"
        }
      ],
      "name": "All_Hospital",
      "outputs": [
        {
          "components": [
            {
              "internalType": "string",
              "name": "Doctor_Hash",
              "type": "string"
            },
            {
              "internalType": "uint256",
              "name": "Hospital_id",
              "type": "uint256"
            }
          ],
          "internalType": "struct Block4Health.Registered_Doctor[]",
          "name": "",
          "type": "tuple[]"
        }
      ],
      "stateMutability": "view",
      "type": "function",
      "constant": true
    },
    {
      "inputs": [
        {
          "internalType": "string",
          "name": "HasHrecod",
          "type": "string"
        }
      ],
      "name": "Register_patient",
      "outputs": [],
      "stateMutability": "nonpayable",
      "type": "function"
    },
    {
      "inputs": [],
      "name": "Retrieve_patient",
      "outputs": [
        {
          "components": [
            {
              "internalType": "address",
              "name": "PatientID",
              "type": "address"
            },
            {
              "internalType": "string",
              "name": "Hashrecord",
              "type": "string"
            }
          ],
          "internalType": "struct Block4Health.Patient_Info",
          "name": "",
          "type": "tuple"
        }
      ],
      "stateMutability": "view",
      "type": "function",
      "constant": true
    },
    {
      "inputs": [
        {
          "internalType": "string",
          "name": "Hash_record",
          "type": "string"
        }
      ],
      "name": "Register_Hospital",
      "outputs": [
        {
          "internalType": "uint256",
          "name": "",
          "type": "uint256"
        }
      ],
      "stateMutability": "nonpayable",
      "type": "function"
    },
    {
      "inputs": [
        {
          "internalType": "uint256",
          "name": "Hospital_id",
          "type": "uint256"
        },
        {
          "internalType": "string",
          "name": "Doctor_Hash",
          "type": "string"
        }
      ],
      "name": "Insert_Doctor_Hospital",
      "outputs": [],
      "stateMutability": "nonpayable",
      "type": "function"
    },
    {
      "inputs": [
        {
          "internalType": "string",
          "name": "EHRpdf",
          "type": "string"
        },
        {
          "internalType": "address",
          "name": "patient_id",
          "type": "address"
        }
      ],
      "name": "MakeEHR",
      "outputs": [],
      "stateMutability": "nonpayable",
      "type": "function"
    },
    {
      "inputs": [
        {
          "internalType": "address",
          "name": "patient_id",
          "type": "address"
        }
      ],
      "name": "ViewEHR",
      "outputs": [
        {
          "components": [
            {
              "internalType": "string",
              "name": "DoctorReport",
              "type": "string"
            }
          ],
          "internalType": "struct Block4Health.EHR_Records",
          "name": "",
          "type": "tuple"
        }
      ],
      "stateMutability": "view",
      "type": "function",
      "constant": true
    }
  ],
  "bytecode": "0x60806040526000805534801561001457600080fd5b50611c36806100246000396000f3fe608060405234801561001057600080fd5b50600436106100b45760003560e01c80634a6003cc116100715780634a6003cc146101b6578063592a6d1e146101e657806370dd227e14610202578063cbf1ff5f14610232578063e986f48014610262578063f045668514610292576100b4565b806308fc9e6d146100b957806312beaef1146100e95780631f47b06c1461011a5780632886bc411461014b578063388a6b081461016957806341e6949f14610185575b600080fd5b6100d360048036038101906100ce9190610fc1565b6102ae565b6040516100e091906110a8565b60405180910390f35b61010360048036038101906100fe9190611100565b610399565b604051610111929190611199565b60405180910390f35b610134600480360381019061012f91906111c9565b610462565b604051610142929190611205565b60405180910390f35b61015361052e565b6040516101609190611281565b60405180910390f35b610183600480360381019061017e91906113d8565b61073d565b005b61019f600480360381019061019a9190610fc1565b6108a4565b6040516101ad929190611205565b60405180910390f35b6101d060048036038101906101cb9190611434565b610970565b6040516101dd919061147d565b60405180910390f35b61020060048036038101906101fb9190611498565b610b02565b005b61021c600480360381019061021791906114f4565b610b6d565b6040516102299190611534565b60405180910390f35b61024c60048036038101906102479190610fc1565b610bbb565b604051610259919061154f565b60405180910390f35b61027c600480360381019061027791906111c9565b610c61565b604051610289919061167f565b60405180910390f35b6102ac60048036038101906102a79190611434565b610d6f565b005b6102b6610f0c565b600460008373ffffffffffffffffffffffffffffffffffffffff1673ffffffffffffffffffffffffffffffffffffffff168152602001908152602001600020604051806020016040529081600082018054610310906116d0565b80601f016020809104026020016040519081016040528092919081815260200182805461033c906116d0565b80156103895780601f1061035e57610100808354040283529160200191610389565b820191906000526020600020905b81548152906001019060200180831161036c57829003601f168201915b5050505050815250509050919050565b600260205281600052604060002081815481106103b557600080fd5b9060005260206000209060020201600091509150508060000180546103d9906116d0565b80601f0160208091040260200160405190810160405280929190818152602001828054610405906116d0565b80156104525780601f1061042757610100808354040283529160200191610452565b820191906000526020600020905b81548152906001019060200180831161043557829003601f168201915b5050505050908060010154905082565b60016020528060005260406000206000915090508060000160009054906101000a900473ffffffffffffffffffffffffffffffffffffffff16908060010180546104ab906116d0565b80601f01602080910402602001604051908101604052809291908181526020018280546104d7906116d0565b80156105245780601f106104f957610100808354040283529160200191610524565b820191906000526020600020905b81548152906001019060200180831161050757829003601f168201915b5050505050905082565b610536610f1f565b3373ffffffffffffffffffffffffffffffffffffffff16600360003373ffffffffffffffffffffffffffffffffffffffff1673ffffffffffffffffffffffffffffffffffffffff16815260200190815260200160002060000160009054906101000a900473ffffffffffffffffffffffffffffffffffffffff1673ffffffffffffffffffffffffffffffffffffffff1614610606576040517f08c379a00000000000000000000000000000000000000000000000000000000081526004016105fd9061174d565b60405180910390fd5b600360003373ffffffffffffffffffffffffffffffffffffffff1673ffffffffffffffffffffffffffffffffffffffff1681526020019081526020016000206040518060400160405290816000820160009054906101000a900473ffffffffffffffffffffffffffffffffffffffff1673ffffffffffffffffffffffffffffffffffffffff1673ffffffffffffffffffffffffffffffffffffffff1681526020016001820180546106b6906116d0565b80601f01602080910402602001604051908101604052809291908181526020018280546106e2906116d0565b801561072f5780601f106107045761010080835404028352916020019161072f565b820191906000526020600020905b81548152906001019060200180831161071257829003601f168201915b505050505081525050905090565b816000600160008381526020019081526020016000206001018054610761906116d0565b80601f016020809104026020016040519081016040528092919081815260200182805461078d906116d0565b80156107da5780601f106107af576101008083540402835291602001916107da565b820191906000526020600020905b8154815290600101906020018083116107bd57829003601f168201915b505050505090506000815190506000810361082a576040517f08c379a0000000000000000000000000000000000000000000000000000000008152600401610821906117b9565b60405180910390fd5b60026000868152602001908152602001600020604051806040016040528086815260200187815250908060018154018082558091505060019003906000526020600020906002020160009091909190915060008201518160000190816108909190611985565b506020820151816001015550505050505050565b60036020528060005260406000206000915090508060000160009054906101000a900473ffffffffffffffffffffffffffffffffffffffff16908060010180546108ed906116d0565b80601f0160208091040260200160405190810160405280929190818152602001828054610919906116d0565b80156109665780601f1061093b57610100808354040283529160200191610966565b820191906000526020600020905b81548152906001019060200180831161094957829003601f168201915b5050505050905082565b600080600090505b6000548111610a38573373ffffffffffffffffffffffffffffffffffffffff166001600083815260200190815260200160002060000160009054906101000a900473ffffffffffffffffffffffffffffffffffffffff1673ffffffffffffffffffffffffffffffffffffffff1603610a25576040517f08c379a0000000000000000000000000000000000000000000000000000000008152600401610a1c90611ac9565b60405180910390fd5b8080610a3090611b18565b915050610978565b5060405180604001604052803373ffffffffffffffffffffffffffffffffffffffff1681526020018381525060016000806000815480929190610a7a90611b18565b91905055815260200190815260200160002060008201518160000160006101000a81548173ffffffffffffffffffffffffffffffffffffffff021916908373ffffffffffffffffffffffffffffffffffffffff1602179055506020820151816001019081610ae89190611985565b509050506001600054610afb9190611b60565b9050919050565b604051806020016040528083815250600460008373ffffffffffffffffffffffffffffffffffffffff1673ffffffffffffffffffffffffffffffffffffffff1681526020019081526020016000206000820151816000019081610b659190611985565b509050505050565b60056020528160005260406000208181548110610b8957600080fd5b906000526020600020016000915091509054906101000a900473ffffffffffffffffffffffffffffffffffffffff1681565b6004602052806000526040600020600091509050806000018054610bde906116d0565b80601f0160208091040260200160405190810160405280929190818152602001828054610c0a906116d0565b8015610c575780601f10610c2c57610100808354040283529160200191610c57565b820191906000526020600020905b815481529060010190602001808311610c3a57829003601f168201915b5050505050905081565b606060026000838152602001908152602001600020805480602002602001604051908101604052809291908181526020016000905b82821015610d645783829060005260206000209060020201604051806040016040529081600082018054610cc9906116d0565b80601f0160208091040260200160405190810160405280929190818152602001828054610cf5906116d0565b8015610d425780601f10610d1757610100808354040283529160200191610d42565b820191906000526020600020905b815481529060010190602001808311610d2557829003601f168201915b5050505050815260200160018201548152505081526020019060010190610c96565b505050509050919050565b3373ffffffffffffffffffffffffffffffffffffffff16600360003373ffffffffffffffffffffffffffffffffffffffff1673ffffffffffffffffffffffffffffffffffffffff16815260200190815260200160002060000160009054906101000a900473ffffffffffffffffffffffffffffffffffffffff1673ffffffffffffffffffffffffffffffffffffffff1603610e3f576040517f08c379a0000000000000000000000000000000000000000000000000000000008152600401610e3690611be0565b60405180910390fd5b60405180604001604052803373ffffffffffffffffffffffffffffffffffffffff16815260200182815250600360003373ffffffffffffffffffffffffffffffffffffffff1673ffffffffffffffffffffffffffffffffffffffff16815260200190815260200160002060008201518160000160006101000a81548173ffffffffffffffffffffffffffffffffffffffff021916908373ffffffffffffffffffffffffffffffffffffffff1602179055506020820151816001019081610f059190611985565b5090505050565b6040518060200160405280606081525090565b6040518060400160405280600073ffffffffffffffffffffffffffffffffffffffff168152602001606081525090565b6000604051905090565b600080fd5b600080fd5b600073ffffffffffffffffffffffffffffffffffffffff82169050919050565b6000610f8e82610f63565b9050919050565b610f9e81610f83565b8114610fa957600080fd5b50565b600081359050610fbb81610f95565b92915050565b600060208284031215610fd757610fd6610f59565b5b6000610fe584828501610fac565b91505092915050565b600081519050919050565b600082825260208201905092915050565b60005b8381101561102857808201518184015260208101905061100d565b60008484015250505050565b6000601f19601f8301169050919050565b600061105082610fee565b61105a8185610ff9565b935061106a81856020860161100a565b61107381611034565b840191505092915050565b6000602083016000830151848203600086015261109b8282611045565b9150508091505092915050565b600060208201905081810360008301526110c2818461107e565b905092915050565b6000819050919050565b6110dd816110ca565b81146110e857600080fd5b50565b6000813590506110fa816110d4565b92915050565b6000806040838503121561111757611116610f59565b5b6000611125858286016110eb565b9250506020611136858286016110eb565b9150509250929050565b600082825260208201905092915050565b600061115c82610fee565b6111668185611140565b935061117681856020860161100a565b61117f81611034565b840191505092915050565b611193816110ca565b82525050565b600060408201905081810360008301526111b38185611151565b90506111c2602083018461118a565b9392505050565b6000602082840312156111df576111de610f59565b5b60006111ed848285016110eb565b91505092915050565b6111ff81610f83565b82525050565b600060408201905061121a60008301856111f6565b818103602083015261122c8184611151565b90509392505050565b61123e81610f83565b82525050565b600060408301600083015161125c6000860182611235565b50602083015184820360208601526112748282611045565b9150508091505092915050565b6000602082019050818103600083015261129b8184611244565b905092915050565b600080fd5b600080fd5b7f4e487b7100000000000000000000000000000000000000000000000000000000600052604160045260246000fd5b6112e582611034565b810181811067ffffffffffffffff82111715611304576113036112ad565b5b80604052505050565b6000611317610f4f565b905061132382826112dc565b919050565b600067ffffffffffffffff821115611343576113426112ad565b5b61134c82611034565b9050602081019050919050565b82818337600083830152505050565b600061137b61137684611328565b61130d565b905082815260208101848484011115611397576113966112a8565b5b6113a2848285611359565b509392505050565b600082601f8301126113bf576113be6112a3565b5b81356113cf848260208601611368565b91505092915050565b600080604083850312156113ef576113ee610f59565b5b60006113fd858286016110eb565b925050602083013567ffffffffffffffff81111561141e5761141d610f5e565b5b61142a858286016113aa565b9150509250929050565b60006020828403121561144a57611449610f59565b5b600082013567ffffffffffffffff81111561146857611467610f5e565b5b611474848285016113aa565b91505092915050565b6000602082019050611492600083018461118a565b92915050565b600080604083850312156114af576114ae610f59565b5b600083013567ffffffffffffffff8111156114cd576114cc610f5e565b5b6114d9858286016113aa565b92505060206114ea85828601610fac565b9150509250929050565b6000806040838503121561150b5761150a610f59565b5b600061151985828601610fac565b925050602061152a858286016110eb565b9150509250929050565b600060208201905061154960008301846111f6565b92915050565b600060208201905081810360008301526115698184611151565b905092915050565b600081519050919050565b600082825260208201905092915050565b6000819050602082019050919050565b6115a6816110ca565b82525050565b600060408301600083015184820360008601526115c98282611045565b91505060208301516115de602086018261159d565b508091505092915050565b60006115f583836115ac565b905092915050565b6000602082019050919050565b600061161582611571565b61161f818561157c565b9350836020820285016116318561158d565b8060005b8581101561166d578484038952815161164e85826115e9565b9450611659836115fd565b925060208a01995050600181019050611635565b50829750879550505050505092915050565b60006020820190508181036000830152611699818461160a565b905092915050565b7f4e487b7100000000000000000000000000000000000000000000000000000000600052602260045260246000fd5b600060028204905060018216806116e857607f821691505b6020821081036116fb576116fa6116a1565b5b50919050565b7f506c7320526567697374657220796f757273656c660000000000000000000000600082015250565b6000611737601583611140565b915061174282611701565b602082019050919050565b600060208201905081810360008301526117668161172a565b9050919050565b7f596f757220486f73706974616c206973206e6f74205265676973746572000000600082015250565b60006117a3601d83611140565b91506117ae8261176d565b602082019050919050565b600060208201905081810360008301526117d281611796565b9050919050565b60008190508160005260206000209050919050565b60006020601f8301049050919050565b600082821b905092915050565b60006008830261183b7fffffffffffffffffffffffffffffffffffffffffffffffffffffffffffffffff826117fe565b61184586836117fe565b95508019841693508086168417925050509392505050565b6000819050919050565b600061188261187d611878846110ca565b61185d565b6110ca565b9050919050565b6000819050919050565b61189c83611867565b6118b06118a882611889565b84845461180b565b825550505050565b600090565b6118c56118b8565b6118d0818484611893565b505050565b5b818110156118f4576118e96000826118bd565b6001810190506118d6565b5050565b601f8211156119395761190a816117d9565b611913846117ee565b81016020851015611922578190505b61193661192e856117ee565b8301826118d5565b50505b505050565b600082821c905092915050565b600061195c6000198460080261193e565b1980831691505092915050565b6000611975838361194b565b9150826002028217905092915050565b61198e82610fee565b67ffffffffffffffff8111156119a7576119a66112ad565b5b6119b182546116d0565b6119bc8282856118f8565b600060209050601f8311600181146119ef57600084156119dd578287015190505b6119e78582611969565b865550611a4f565b601f1984166119fd866117d9565b60005b82811015611a2557848901518255600182019150602085019450602081019050611a00565b86831015611a425784890151611a3e601f89168261194b565b8355505b6001600288020188555050505b505050505050565b7f596f757220486f73706974616c20697320616c7265616479205265676973746560008201527f7200000000000000000000000000000000000000000000000000000000000000602082015250565b6000611ab3602183611140565b9150611abe82611a57565b604082019050919050565b60006020820190508181036000830152611ae281611aa6565b9050919050565b7f4e487b7100000000000000000000000000000000000000000000000000000000600052601160045260246000fd5b6000611b23826110ca565b91507fffffffffffffffffffffffffffffffffffffffffffffffffffffffffffffffff8203611b5557611b54611ae9565b5b600182019050919050565b6000611b6b826110ca565b9150611b76836110ca565b9250828203905081811115611b8e57611b8d611ae9565b5b92915050565b7f796f752061726520616c72656164792072656769737465720000000000000000600082015250565b6000611bca601883611140565b9150611bd582611b94565b602082019050919050565b60006020820190508181036000830152611bf981611bbd565b905091905056fea2646970667358221220cd44bb3f8bb8fff37df4afb02e822c2010b7cfe849a70e16263c44f0e2fca37264736f6c63430008130033",
  "immutableReferences": {},
  "source": "\n// SPDX-License-Identifier: MIT\npragma solidity ^0.8.0;\ncontract Block4Health{\n    \n     uint256 Hospital=0;\n    struct Registered_Doctor{\n         string Doctor_Hash;\n         uint Hospital_id;\n         \n         \n\n    }\n    // patient Hospital Record\n    struct Hospital_Record{\n         address Hospital_id;\n         string Hospital_hash_record;\n    }\n\n    mapping(uint256=>Hospital_Record) public Hospital_map;\n    mapping(uint256=>Registered_Doctor []) public Hospital_Doctor;\n\n  function All_Hospital(uint256 id) public view returns(Registered_Doctor[] memory) {\n        return Hospital_Doctor[id];\n    }\n\n\n    // patient Patient personal Records\n    struct Patient_Info{\n         address PatientID;\n         string Hashrecord;\n    }\n    /// permission Granted Which Person;\n    // mapping(Grantedby=>GrantedTo) public Access;\n    struct acess{\n         bool View; address EHR_ID;\n    }\n//     mapping(address=>mapping(uint256=>mapping(uint256=>acess))) public Patient_Grant;\n    mapping(address=>Patient_Info) public Patient_map;\n    // patient EHR Records\n     struct EHR_Records{\n         string DoctorReport;\n    }\n//     mapping(address=>mapping(address=>EHR_Records)) public EHR_Store;\n//     mapping(address=>EHR_Records) public EHR_Store;\n//     mapping(address=> mapping(address=>EHR_Records) ) public EHR_Store_Access;\nmapping(address => EHR_Records) public EHR_Store;\nmapping(address => address[]) public EHR_Store_Access;\n\n    // Registering patient on BLock4Health\n      \n    function Register_patient(string memory HasHrecod) public  {\n         require(Patient_map[msg.sender].PatientID!=msg.sender,\"you are already register\");\n         Patient_map[msg.sender]= Patient_Info(msg.sender,HasHrecod);\n    }\n\n    function Retrieve_patient() external view returns(Patient_Info memory)  {\n        require(Patient_map[msg.sender].PatientID==msg.sender,\"Pls Register yourself\");\n         return Patient_map[msg.sender];\n\n    }\n    //modifier\n    /***/\n     modifier Hospital_Regst_or_not(uint256 Hospital_id) {\n      string memory name1=Hospital_map[Hospital_id].Hospital_hash_record;\n          uint256 bytelength = bytes(name1).length;\n        require(bytelength!=0,\"Your Hospital is not Register\");\n    _;\n     }\n     modifier on_agin_Register {\n        for(uint256 i=0;i<=Hospital;i++){\n         require(Hospital_map[i].Hospital_id!=msg.sender,\"Your Hospital is already Register\");\n        }\n    _;\n     }\n     \n     /***/\n    // Registering Hospital  on BLock4Health\n    function Register_Hospital(string memory Hash_record)  public on_agin_Register returns(uint) {\n        Hospital_map[Hospital++]= Hospital_Record(msg.sender,Hash_record);\n          return Hospital-1;\n    }\n\n    function Insert_Doctor_Hospital(uint Hospital_id,string memory Doctor_Hash)  public Hospital_Regst_or_not(Hospital_id)  {\n        Hospital_Doctor[Hospital_id].push(Registered_Doctor(Doctor_Hash,Hospital_id));\n    }\n    \n\n     function MakeEHR(string memory EHRpdf,address patient_id) public{\n          EHR_Store[patient_id]=EHR_Records(EHRpdf);\n     }\n\n     // View EHR of patient\n     function ViewEHR(address patient_id) public view  returns(EHR_Records memory ) {\n          // require(Patient_map[msg.sender].PatientID==msg.sender,\"you are not register\");\n          return EHR_Store[patient_id];\n\n     }\n}",
  "sourcePath": "D:\\Blockchain\\petshop\\contracts\\Block4Health.sol",
  "compiler": {
    "name": "solc",
    "version": "0.8.19+commit.7dd6d404.Emscripten.clang"
  },
  "schemaVersion": "3.4.13",
  "updatedAt": "2023-04-02T16:37:01.118Z",
  "networkType": "ethereum",
  "devdoc": {
    "kind": "dev",
    "methods": {},
    "version": 1
  },
  "userdoc": {
    "kind": "user",
    "methods": {},
    "version": 1
  }
}